:020000040800F2
:10000000F8180010C5010008611F00086B1D0008EA
:100010005F1F0008410A00081D27000800000000BB
:10002000000000000000000000000000E7240008BD
:10003000990B00080000000011220008E9240008C4
:10004000DF010008DF010008DF010008DF01000810
:10005000DF010008DF010008DF010008DF01000800
:10006000DF010008DF010008DF010008DF010008F0
:10007000DF010008DF010008DF010008DF010008E0
:10008000DF010008DF010008DF010008DF010008D0
:10009000DF010008DF010008DF010008DF010008C0
:1000A000DF010008DF010008DF010008DF010008B0
:1000B000DF010008DF010008DF010008DF010008A0
:1000C000DF010008DF010008DF010008DF01000890
:1000D000DF010008DF010008DF010008DF01000880
:1000E000DF010008DF010008DF010008DF01000870
:1000F000DF010008DF010008DF010008DF01000860
:10010000DF010008DF010008DF010008DF0100084F
:10011000DF010008DF010008DF010008DF0100083F
:10012000DF010008E90A0008DF010008DF0100081C
:10013000DF010008DF010008DF010008DF0100081F
:10014000DF010008DF010008DF010008DF0100080F
:10015000DF010008DF010008DF010008DF010008FF
:10016000DF010008DF010008DF010008DF010008EF
:10017000DF010008DF010008BD0A000800000000E0
:10018000DF010008DF010008DF010008DF010008CF
:10019000DF010008DF010008DF010008DF010008BF
:1001A000DF010008DF010008DF010008DFF810D0E0
:1001B00000F06AFB00480047154F0008AFF30080CD
:1001C000F81800100648804706480047FEE7FEE79B
:1001D000FEE7FEE7FEE7FEE7FEE7FEE7FEE7FEE7F7
:1001E00089250008AD0100082DE9F05F05460020D3
:1001F00092469B4688460646814640241BE0284698
:1002000041464746224600F071FA53465A46C01A04
:10021000914110D311461846224600F016F82D1AC7
:1002200067EB01084F4622460120002100F00DF83F
:1002300017EB00094E41201EA4F10104DFDC484603
:1002400031462A464346BDE8F09F202A04DB203A87
:1002500000FA02F1002070479140C2F1200320FA19
:1002600003F319439040704740EA01039B0703D012
:1002700009E008C9121F08C0042AFAD203E011F8E5
:10028000013B00F8013B521EF9D27047D2B201E0A7
:1002900000F8012B491EFBD270470022F6E710B58B
:1002A00013460A4604461946FFF7F0FF204610BDE4
:1002B000421C10F8011B0029FBD1801A704730B591
:1002C00004460020034600E05B1C934203D2E05C3E
:1002D000CD5C401BF8D030BD2DE9FE4F804681EA51
:1002E0000300C00F0C46009021F0004123F00045B0
:1002F000B8EB0200A94105D24046214690461C4673
:100300000B46024623F00040104347D0270DC7F3A9
:100310000A00C3F30A510290401A019040286BDA98
:10032000C3F3130040F4801B0098924620B10023D1
:10033000D2EB030A63EB0B0B01985946C0F1400264
:100340005046FFF782FF06460D4650465946019A31
:1003500000F0DCF910EB08006141002487EA11523B
:1003600084EAE7731A4340D0009A62B3019A012AE3
:100370004FEA075215DC001B61EB02014FF000420F
:1003800002EA0752CDE90042001C41F580113246D5
:100390002B4600F013FA03B0BDE8F08F404621462B
:1003A000F9E7001B61EB0201001C41F58013001806
:1003B0005B412018A2F5001747EB030140EAD57016
:1003C000B6196D4111E06D084FEA360645EAC07571
:1003D0004FEA0752001B61EB0201001C41F580113E
:1003E00049084FEA30000019514132462B4603B00C
:1003F000BDE8F04F00F0D3B900980122400000237F
:10040000D0EB020263EBE073009821464FEAE07400
:10041000B8EB000061EB0401E9E783F000435BE720
:1004200081F0004158E72DE9FE4F81EA030404F012
:10043000004421F0004100944FF0000B23F00043F2
:1004400050EA01045ED052EA03045BD0C3F30A54BD
:10045000C1F30A552C44A4F2F3340194A0FB0254D6
:10046000C1F3130141F48011C3F3130343F4801368
:1004700001FB024400FB034E840A970A44EA8154BC
:1004800047EA8357A4FB076802958D0A05FB078599
:100490004FEA932C04FB0C542705029D4FEA0658A3
:1004A00047EA1637B5EB08056EEB070C870E920E80
:1004B00047EA811742EA8312A7FB0201B6EB0B0160
:1004C00064EB00042B0D43EA0C335E1844EB1C5024
:1004D000DA465146E7FB0201C5F313044FEA0B333A
:1004E00043EA14534FEA0432019C43EA0603A4F1A1
:1004F0000C040294009CCDE900B400F05FF903B055
:10050000BDE8F08F00200146F9E72DE9F04D81EAC2
:10051000030404F0004B21F0004514464FF0000A9C
:1005200023F0004150EA050220D054EA01021DD018
:10053000C5F30A570246C5F31303C1F31300C1F311
:100540000A5640F4801543F48013A7EB0608101BED
:10055000D64608F2FD3873EB050002D308F1010816
:1005600001E092185B41B8F1000F03DA0020014668
:10057000BDE8F08D00204FF48011064684460EE061
:10058000171B73EB050705D3121B63EB050306432B
:100590004CEA010C49084FEA300092185B4150EADE
:1005A0000107EDD152EA030012D082EA040083EA87
:1005B0000501084305D0101BAB4106D201220023E0
:1005C00006E000224FF0004302E06FF001025310FA
:1005D0001AEB06004CEB085110EB0A0041EB0B0143
:1005E000BDE8F04D00F0DBB80EB540F233410291AA
:1005F0000021CDE900110A460B4600F0DFF803B0F8
:1006000000BDC1F30A52C1F3130140F2FF3341F4BC
:1006100080119A4202DA00200146704740F23343CB
:100620009A42A2F2334202DC524200F05FB8FFF776
:100630000CBE00F0004230F000400AD0C10D01F5C0
:100640006071C0F3160042EA0151C208400711432D
:10065000704700200146704730B5041E71F1000458
:1006600004DB4FF00044404264EB0101141E73F1BF
:10067000000405DB1C464FF00043524263EB0403C9
:100680008B4208BF824230BD01F0004330B421F0FC
:10069000004150EA010206D00A0DA2F56072C1F3D2
:1006A0001301002A02DC30BC00207047440F44EAEA
:1006B000C104C100E01830BC00EBC25000F038B8F3
:1006C00030B50B46014600202022012409E021FA22
:1006D00002F59D4205D303FA02F5491B04FA02F51F
:1006E0002844151EA2F10102F1DC30BD202A04DBF2
:1006F000203A21FA02F00021704721FA02F3D0409B
:10070000C2F120029140084319467047202A06DBB7
:10071000CB17203A41FA02F043EAE07306E041FACF
:1007200002F3D040C2F120029140084319467047BD
:100730000029A8BF7047401C490008BF20F00100F5
:10074000704710B4B0FA80FC00FA0CF050EA0104D3
:1007500004BF10BC704749B1CCF1200421FA04F465
:1007600011FA0CF118BF012121430843A3EB0C013E
:10077000CB1D4FEA00614FEA102042BF002010BCA1
:10078000704700EBC35010440029A4BF10BC704751
:10079000401C490008BF20F0010010BC704710B594
:1007A000141E73F1000408DA401C41F10001921894
:1007B0005B411A4301D120F0010010BD2DE9F04D3D
:1007C00092469B4611B1B1FA81F202E0B0FA80F292
:1007D00020329046FFF739FD04460F4640EA0A00F2
:1007E00041EA0B0153465A46084313D0114653EAD7
:1007F000010019D0C8F140025046FFF777FF0546C7
:100800000E46504659464246FFF71FFD084305D0A5
:10081000012004E020463946BDE8F08D0020054364
:1008200046EAE0762C4337430A986305E40AA0EBD6
:1008300008000022FD0A44EA47540A3002D500208D
:100840000146E9E7010510196941DDE9084500198C
:100850006941BDE8F04DA2E730B5041E71F1000416
:1008600004DB4FF00044404264EB0101141E73F1BD
:10087000000405DB1C464FF00043524263EB0403C7
:10088000994208BF904230BD064C074D06E0E06833
:1008900040F0010394E8070098471034AC42F6D3C7
:1008A000FFF788FCB80A1108E80A110870B58C181F
:1008B00010F8015B15F0070301D110F8013B2A1174
:1008C00006D110F8012B03E010F8016B01F8016B61
:1008D0005B1EF9D12B0705D40023521E0DD401F85D
:1008E000013BFAE710F8013BCB1A921C03E013F826
:1008F000015B01F8015B521EF9D5A142D8D300205B
:1009000070BD000038B511480022694600680090AB
:100910000F4803F0B9FC10F0FF0F06D0020AC1B275
:100920000CA001F0FDFE00F039F9094C00210C3C4F
:10093000E06803F019FDA0610021E06803F01EFDEE
:10094000E0610CA001F0ECFE002038BDFC5700086F
:100950000C000010453A204149206572726F7220E8
:100960002D20747970653D256420636F64653D2595
:10097000640D0A004D6F64656C20496E697469618D
:100980006C697A6520436F6D706C657465202121F8
:1009900021200D0A0000000070B50F4CA2695060C4
:1009A000E06941600DA001F0BBFED4E90612E068E9
:1009B00003F0EEFC054612A001F0B2FE012D09D0B5
:1009C000E06803F0B7FC020AC1B215A001F0A8FE6E
:1009D00000F0E4F8002070BD000000102D2D2D2D3A
:1009E0002D2D2D2D2D52756E6E696E67204E6574FE
:1009F000776F726B2D2D2D2D2D2D2D2D200D0A0095
:100A00002D2D2D2D2D2D2D2D2D52756E6E696E6770
:100A100020456E642D2D2D2D2D2D2D2D200D0A0000
:100A2000453A204149206572726F72202D207479F9
:100A300070653D256420636F64653D25640D0A0083
:100A4000FEE7000010B502F04CF911490968114B9E
:100A5000C1F30221104A012404290BD00F490C6074
:100A60000C68002CFCD10D4908390B6009689142D3
:100A70000AD0FEE70A498C608C68002CFCD10B6020
:100A80000968914200D0FEE702F09EF910BD000017
:100A9000002004E0C2A507F4CDB5E8B5084C025823
:100AA0000030024010B5806B816B496D022902D085
:100AB000012180F8251000F0A7F810BD014800F0D2
:100AC000BBB80000B00F001005480068016841F095
:100AD000010101600348016841F0010101607047B4
:100AE000F00F001000000550014800F0F5B90000BB
:100AF000F00F001001681823CAB2103AB2FBF3F2EB
:100B0000054B6FF30901032A9B5CC36500D9091DDE
:100B100081650846704700003458000810B501464A
:100B200000208B698A6A4FF0C07453B1B3F5005F3F
:100B300015D072B1012A0CD0022A0AD0032A09D199
:100B400004E01AB1012A06D0022A03D1C96AC901F8
:100B500000D5012010BDC96AA142FAD010BD002AFB
:100B6000F7D0012AF2D0022AF3D0032AF3D010BD25
:100B700030B50468256825F4802525600468636025
:100B80008368402B036803D099600068C26030BD61
:100B90009A600068C16030BD7047000072B6064DB3
:100BA0004FF400544FF4FA762146284600F023FC17
:100BB000304600F0EFFAF7E70018024010B50400E5
:100BC00002D0607910B106E0012010BD0020207134
:100BD000204600F005F801206071002010BD0000E3
:100BE00008B500680649884208D10648016841F402
:100BF00080510160006800F48050009008BD000042
:100C000000300240303802407047000010B5084CF8
:100C100001202168486104F041F94FF40051054872
:100C200000F0E9FB2068C16841F00101C16010BD1E
:100C3000B00F0010001802402DE9F0410446006892
:100C40000569224F69074FF004060BD54661E06B3A
:100C500040F00200E06384F82560A06B0765A06B9C
:100C600000F027F9A8070DD5216802204861E06B44
:100C700040F00100E06384F82560A06B0765A06B7D
:100C800000F017F9E80605D52168102048612046D4
:100C900000F061F8280705D5216808204861204642
:100CA00000F006F9E8070FD020680168890703D52E
:100CB000C16821F01E01C1602068C16821F00101F6
:100CC000C1602046FFF7A2FFBDE8F081A50A000839
:100CD00070B5040004D094F82500002510B109E097
:100CE000012070BD84F82450204600F035F82046DD
:100CF00000F032F8022084F825002068016840F6F0
:100D0000F87291430160616960680843D4E9031295
:100D100011430843A1680843A1690843216A0843B5
:100D200021680A68104308606068102808D1A17F14
:100D3000A08B61F31F40E17F40EA01602168886178
:100D40002068C16841F01E01C160E563012084F89C
:100D50002500002070BD7047F0B587B0064614210D
:100D60006846FFF79AFA4949306888427ED1484878
:100D70000025016841F0010101600068444900F06C
:100D80000100091F0590086840F01000086008681D
:100D900000F010000590086840F001000860086845
:100DA00000F001000590086840F004000860086841
:100DB00000F004000590086840F00800086008682A
:100DC00000F008000590086840F0400008600868DE
:100DD000022400F04000059070208DE831000D27BE
:100DE000CDE9035769462B4800F0E6F950208DE81D
:100DF0003100CDE903576946274800F0DDF94FF48B
:100E000070708DE83100CDE903576946234800F042
:100E1000D3F908208DE83100CDE903576946204811
:100E200000F0CAF920028DE83100CDE90357694688
:100E30001C4800F0C1F91D4C1B4820604FF00070A9
:100E4000C4E90105C013C4E903508000606180005B
:100E5000A0618011C4E90705042060620120C4E993
:100E60000A052046256300F007F900E00CE008B110
:100E7000FFF794FEB463002211464E20A66300F0F3
:100E800047FB4E2000F036FB07B0F0BD00000550D8
:100E900034380240001002400000024000080240C6
:100EA000000C02400018024028640240F00F0010BD
:100EB000704790F83510022903D080214165012048
:100EC0007047052180F835100068016821F00101A4
:100ED00001600020704700002DE9F84304464FF000
:100EE0000009CDF8009063484FF41651A56D0068D5
:100EF000B0FBF1F72E6894F85C10082000FA01F1BD
:100F000031420FD021680A6852070BD50A6822F0D7
:100F100004020A6094F85C108840A860606D40F09C
:100F20000100606594F85C104FF0010808FA01F0C8
:100F3000304208D021684969090604D5A860606D6F
:100F400040F00200606594F85C1004208840304254
:100F500008D021680968890704D5A860606D40F051
:100F60000400606594F85C1010208840304218D06E
:100F700021680968090714D5A86020680168490339
:100F800004D50068000308D5A16C07E00168C90515
:100F900003D4016821F008010160216C09B12046E9
:100FA000884794F85C1020208840304231D0216876
:100FB0000968C9062DD5A86094F835000528206871
:100FC000016806D0490347D5006800031DD4616C51
:100FD0001CE021F0160101602068416921F08001C8
:100FE0004161206C08B9A06C20B12068016821F033
:100FF0000801016094F85C103F208840A86084F8E4
:10100000358084F83490216D1FE0E16B09B12046F2
:101010008847606D00282BD0606DC00714D0052074
:1010200084F835002068016821F001010160009812
:10103000401C0090B84203D820680068C007F6D171
:1010400084F8358084F83490E16C002910D001B028
:101050002046BDE8F04308470168C905D5D40168BA
:1010600021F01001016084F8358084F83490CCE7D9
:10107000BDE8F8833C0000102DE9F041044600F083
:10108000D9F906465CB1022084F83500002584F8C1
:1010900034502068016821F0010101600DE0012059
:1010A000BDE8F08100F0C6F9801B052805D9202095
:1010B0006065032084F83500F2E720680068C00707
:1010C000F0D12268116820480140D4E90103184397
:1010D000D4E903363343184363691843A3691843BB
:1010E000E3691843236A18430843616A042903D15A
:1010F000D4E90B1319430843106020684069666AFD
:1011000020F0070130460E43012704280CD1A06AC5
:101110000643E06A40B12046FFF700FD20B14020C1
:10112000606584F83570BAE7206846612046FFF7AD
:10113000E1FC94F85C203F2191408160656584F872
:1011400035700020ACE700003F8010F070B5044619
:1011500090F83400002501280CD0012084F83400D8
:1011600094F835600020012E06D084F83400022562
:10117000284670BD022070BD022684F83560606587
:101180002046FFF7F5FC2068016841F0010101608D
:10119000EEE7000070B5044600F04CF90546601C0F
:1011A00002D004480078044400F044F9401BA042F7
:1011B000FAD370BD300000102DE9F84FDFF8F8A128
:1011C0000022012403254FF00F090AF1040BAAF1B4
:1011D000040E00BF0B6804FA02F63340B34270D12C
:1011E0000F7907F00307012F01D0022F16D187686E
:1011F0004FEA420805FA08FC27EA0C07D1F80CC0B0
:101200000CFA08FC4CEA070CC0F808C04768B74362
:101210000E79C6F3001696403E4346600E79F643BB
:10122000B6070AD0C7684FEA420C05FA0CF6B74376
:101230008E6806FA0CF63E43C6600E7906F0030689
:10124000022E10D1D60800EB8608D8F82060570788
:101250004FEAD76C09FA0CF7BE430F6907FA0CF78F
:101260003743C8F8207006684FEA420C05FA0CF7BD
:10127000BE430F7907F0030707FA0CF737430760FF
:101280004E6816F4403F1CD04C4E376847F48047F8
:101290003760366822F0030706F480460096484E11
:1012A00007EB060CDCF8086897073F0F09FA07F808
:1012B00026EA0806DFF80C81404503D14FF000080C
:1012C00041E072E0DFF80081404502D14FF00108B3
:1012D00039E0DFF8F880404502D14FF0020832E0F3
:1012E000DFF8EC80404502D14FF003082BE0DFF837
:1012F000E480404502D14FF0040824E0DFF8D880B4
:10130000404502D14FF005081DE0DFF8D080404590
:1013100002D14FF0060816E0DFF8C480404502D144
:101320004FF007080FE0DFF8BC80404502D14FF0D6
:10133000080808E0DFF8B080404502D14FF0090806
:1013400001E04FF00A0808FA07F848EA0608CCF866
:101350000888DAF800605746D1F804C09E435FEA77
:10136000CC2C00D51E433E60DBF800605F46D1F810
:1013700004C09E435FEA8C2C00D51E433E60DEF81D
:1013800000607746D1F804C09E435FEA8C3C00D5EC
:101390001E433E60084F083F3E68D1F804C09E439C
:1013A0005FEACC3C00D51E433E60521C102AFFF47D
:1013B00011AFBDE8F88F0000083C014044380240FE
:1013C00000300140000002400004024000080240DA
:1013D000000C0240001002400014024000180240BD
:1013E000001C024000200240002402400069084026
:1013F00000D001207047426921EA02030A4043EA13
:101400000241816170470AB1816170470904FBE7BD
:1014100002480068C0F30B0070470000002004E0A1
:10142000004870470001080101480068000C70473F
:10143000002004E001488068704700003000001080
:1014400002488168027811448160704730000010C2
:101450000B4810B5016841F400710160016841F466
:1014600080610160016841F480710160032000F037
:101470006FF80F2000F006F800F024F8002010BDEF
:10148000003C024070B50D4D04464FF47A71287847
:10149000B1FBF0F00A490968B1FBF0F000F090FBF5
:1014A00048B9102C07D200222146501E00F030F817
:1014B00000206C6070BD012070BD00003000001085
:1014C0003C0000100A4808B5016841F48041016001
:1014D000006800F4804000900548001F016841F05A
:1014E00080510160006800F08050009008BD00004D
:1014F00044380240002809DB00F01F02012191401E
:101500004009800000F1E020C0F8001170470000A1
:10151000F0B40E4B1B680C46C3F30223C3F107055E
:10152000042D00D90425191D072901D2002300E04C
:10153000DB1E012606FA05F1491E214099409E4016
:10154000761E16403143F0BC01F00DB90CED00E001
:10155000064900F0070208684FF6FF03184040EA0A
:101560000220034A10430860704700000CED00E0C1
:101570000000FA052DE9F8431748016841F0805151
:1015800001600068154F00F08050012600903E6415
:10159000FFF750FF05464FF47A78114C05E000BF85
:1015A000FFF748FF401B40450DD86068C003F7D5E2
:1015B0007E64FFF73FFF0546464607E0FFF73AFF28
:1015C000401BB04202D90320BDE8F8836068800365
:1015D000F4D50020F8E700004038024000000E4239
:1015E000007000402DE9F0470E46050065D0DFF899
:1015F0001481D8F80000F7B200F00F00B04207D213
:1016000088F80070D8F8000000F00F00B04254D104
:1016100028683D4C810712D5400703D5206840F467
:10162000E05020602878000703D5206840F460402F
:1016300020602068A96820F0F00008432060287826
:10164000C0072DD0304968680839012812D0022817
:1016500013D0032811D00968890700292DDA2168E1
:1016600021F0030101432160FFF7E4FE814641F2CE
:10167000883A0EE009688903EFE709688901ECE719
:10168000FFF7D8FEA0EB0901514502D90320BDE8C0
:10169000F0872068696800F00C00B0EB810FEFD193
:1016A000D8F80010404601F00F01B14207D9077089
:1016B000006800F00F00B04201D00120E7E7287871
:1016C000400705D52068E96820F4E0500843206011
:1016D0002878000706D52068296920F4604040EA90
:1016E000C100206000F03EF82168084AC1F30311F0
:1016F000515CC8400649086006480068FFF7C2FE12
:101700000020C4E7003C0240083802403C58000872
:101710003C000010340000100148006870470000D1
:101720003C0000100448054900680968044AC1F3F8
:101730008221515CC84070473C00001008380240CC
:101740004C5800080448054900680968044AC1F378
:101750004231515CC84070473C00001008380240DC
:101760004C580008154810B5006810F00C021448D9
:1017700013D01449042A0FD0082A0ED10F4C241F6D
:101780002268236802F03F025B0207D52068C0F39D
:101790008810A0FB010106E0084610BD2168C1F3D6
:1017A0008811A1FB00010023FEF71EFD2168C1F393
:1017B0000141491C4900B0FBF1F010BD083802405E
:1017C0000024F40040787D01F0B51F4C16460D460C
:1017D0001D4B002102220327283C0028186887B0EF
:1017E00019D040F004001860186800F0040005905B
:1017F00010020090CDE90121CDE90371694613483B
:10180000FFF7DAFC206845EAC60120F0784008437B
:10181000206007B0F0BD40F001001860186800F0CB
:10182000010005904FF480700090CDE90121CDE9D1
:10183000037169460648FFF7BFFC2068354320F076
:10184000EC602843E4E70000303802400008024022
:10185000000002402DE9F84F04006ED02078DFF838
:101860004C93C007A9F104054AD009F104000168AE
:10187000C1F38101012908D00068C0F3810002286A
:101880000AD1D9F80000400206D52868800337D570
:1018900060680028E1D033E06068B0F5803F10D088
:1018A000B0F5A02F286810D020F480302860286878
:1018B00020F4802028606068A8B1FFF7BBFD0646D1
:1018C0000DE0286840F48030F4E740F48020286080
:1018D000F7E700BFFFF7AEFD801B642873D82868C8
:1018E0008003F7D50CE0FFF7A5FD064605E000BF35
:1018F000FFF7A0FD801B6428F0D828688003F7D488
:101900002078DFF8AC8280074FF0000A3ED5A74868
:10191000001D016811F00C0F08D00068C0F38100B1
:1019200002280BD1D9F80000400207D428688007AC
:1019300016D5E068012800D112E033E1E068B8B1C3
:101940000120C8F80000FFF775FD064605E000BF5E
:10195000FFF770FD801B0228C0D828688007F7D5E4
:101960002868216920F0F80040EAC10028600DE0F5
:10197000C8F800A0FFF75EFD064604E0FFF75AFD39
:10198000801B02281FD828688007F7D4207800071A
:1019900022D5864F87486169703771B10121016096
:1019A000FFF748FD064604E0FFF744FD801B0228D0
:1019B00009D838688007F7D50EE0C0F800A0FFF717
:1019C00039FD064605E082E0FFF734FD801B022862
:1019D0007DD838688007F7D42078400768D5DFF8CD
:1019E000CCB100270BF13C0BDBF80000C0000BD49E
:1019F000DBF8001041F08051CBF80010DBF800005C
:101A0000012700F0805000906B4E3068C00510D464
:101A1000306840F480703060FFF70CFD009005E006
:101A2000FFF708FD0099401A022850D83068C00519
:101A3000F6D55E4EA0686C3601280FD005283068B8
:101A400010D020F001003060306820F004003060D9
:101A5000A068B8B1FFF7EEFC00900FE0306840F0EE
:101A60000100F4E740F004003060F7E7FFF7E2FC24
:101A70000099411A41F28830814266D83068800767
:101A8000F4D50EE0FFF7D6FC009007E0FFF7D2FC9C
:101A90000099411A41F28830814256D83068800757
:101AA000F4D42FB1DBF8001021F08051CBF80010F6
:101AB000A069C8B33D49091D0968C1F38101022924
:101AC0004AD00228504607D0C8F8600000E03CE049
:101AD000FFF7B0FC04463BE04746C8F86000FFF75C
:101AE000A9FC064605E000BFFFF7A4FC801B022806
:101AF0002BD828688001F7D4D4E907010843A16AEC
:101B00002E4A490802EB0141626A41EA8211084308
:101B100094F82C1040EA0161C9F8001001203866E1
:101B2000FFF788FC044606E03EE000BFFFF782FCBA
:101B3000001B022809D828688001F7D534E000BFCF
:101B4000FFF778FC001B022802D90320BDE8F88FBC
:101B500028688001F4D427E00128F7D0D9F80000E4
:101B6000E26900F4800191421CD1226A00F03F0139
:101B7000914217D147F6C071626A0140B1EB821FF2
:101B800010D1A26A4FF0FF3300F4403103EB520250
:101B9000B1EB024F06D194F82C1000F07060B0EB5E
:101BA000016F01D00120D1E70020CFE704380240C7
:101BB00000004742800E4742007000400000FFFFD7
:101BC00010B5401EB0F1807F01D3012010BD4FF051
:101BD000E02460610F21601700F0C5FD0020A061C6
:101BE00007202061002010BD70B5040004D094F8D7
:101BF0003D00002510B106E0012070BD84F83C5086
:101C0000204600F023F8242084F83D002068C168B5
:101C100021F40051C160204600F0BEFC206801693B
:101C200021F4904101612068416921F02A0141615C
:101C30002068C16841F40051C1602564202084F807
:101C40003D0084F83E00002070BD000010B586B055
:101C5000044614216846FEF720FB14492068884298
:101C600021D113480021026842F01002026000688E
:101C700000F0100005900E481438026842F001028E
:101C80000260006800F0010005904FF4C060009011
:101C90000220CDE90101032003900720049069464A
:101CA0000448FFF789FA06B010BD0000001001409B
:101CB00044380240000002402DE9F843044690F801
:101CC0003D001F4616460D4620284CD1C5B1BEB179
:101CD00094F83C00012846D0012084F83C004FF0E5
:101CE0000008C4F84080212084F83D00FFF7A2FBE3
:101CF000A6848146E684A068B0F5805F03D004E046
:101D00000120BDE8F883206928B12E465FF0000568
:101D100084F83C800EE00026FAE78021204600F09F
:101D2000C1FCA0B9AEB116F8010B21684860E08C87
:101D3000401EE084E08C4B464FF0000200970028E4
:101D4000EBD14FF04001204600F0ACFC30B1032055
:101D5000D7E735F8020BC0F30800E6E7202084F847
:101D60003D000020CDE70220CBE7FEE7074910B594
:101D7000054808600846FEF721FF002803D0BDE8AB
:101D80001040FEF70BBF10BD0030024028000010CD
:101D900070B5104C0E4E002520202660C4E901507D
:101DA000E560256165610820A56120622046FEF797
:101DB0008FFF08B1FEF7F2FEF5602068C16841F0C0
:101DC0000101C1602068016841F48041016070BD7B
:101DD00000000550B00F0010094808B5016841F433
:101DE000800101600068002200F48000009011462C
:101DF0003920FFF78DFBBDE808403920FFF77ABB9B
:101E0000303802402DE9F04387B014216846FEF7D0
:101E100044FA3D480024016841F010010160016866
:101E200001F010010591016841F0040101600168B1
:101E300001F004010591016841F080010160016831
:101E400001F080010591016841F001010160016824
:101E500001F001010591016841F00801016001688C
:101E600001F008010591016841F04001016000683E
:101E7000264F00F0400005900122A0213846FFF7D0
:101E8000C2FADFF88C800022C0214046FFF7BBFA7F
:101E9000DFF880904FF4C046002231464846FFF7F5
:101EA000B2FAA02000900125CDE9015469463846D8
:101EB0000394FFF781F9280200900220CDE9010484
:101EC0000394694638460494FFF776F94020009061
:101ED000CDE90154694640460394FFF76DF980202F
:101EE00000901120CDE90104694640460394FFF7B4
:101EF00063F90096CDE90154694648460394FFF71B
:101F00005BF907B0BDE8F0833038024000000240C2
:101F1000000C0240001802400C4810B50A4901604C
:101F20004FF461214160002181600C22C160C0E951
:101F300004128161C161FFF757FE002803D0BDE89C
:101F40001040FEF72BBE10BD0010014050100010D5
:101F500010B5FFF7E1FFBDE8104001F0E7BFFEE775
:101F6000FEE710B504460021FF2000F09DFA002195
:101F70007C2000F099FA04217D2000F095FA0921D7
:101F80007C2000F091FA2007010E7D2000F08CFAF1
:101F90000021BDE810407D2000F086BA000110B598
:101FA0002030C0B240F008040021FF2000F07CFA8D
:101FB00000217C2000F078FA02217D2000F074FAE4
:101FC00003217C2000F070FA21467D2000F06CFA9D
:101FD0002146BDE810407D2000F066BA70B520258E
:101FE0002C4630B1012807D0032808D004280BD193
:101FF00008E01825342407E01C252A2404E02425C1
:10200000162401E028250C240021FF2000F04CFAC2
:1020100000217C2000F048FA04217D2000F044FAE1
:1020200007217C2000F040FA20217D2000F03CFABE
:1020300029467D2000F038FA21467D2000F034FA50
:10204000BDE8704006217D2000F02EBA70B52E4DFF
:102050000024224680212846FFF7D5F90A2002F005
:102060001BFC002220212846FFF7CDF90A2002F0B0
:1020700013FC012220212846FFF7C5F900F0E2F801
:102080000121FF2000F010FA8021122000F00CFA4C
:10209000322002F001FC1C2000F054F905021D2042
:1020A00000F050F928430546014618A000F038FB1F
:1020B000A5F5FE40A23805D0294614A000F030FB5B
:1020C000012070BD0A2000F03DF905020B2000F050
:1020D00039F92843054601460FA000F021FBA5F57C
:1020E0001850423803D029460BA000F019FB0D4DC3
:1020F00005EB4400417815F8140000F0D5F9641C94
:10210000B12CF5D3002070BD000002404D49443A87
:1021100025640D0A000000004849443A25640D0A70
:10212000000000005458000870B5820701D001205B
:1021300070BD8A0701D0022070BD84088D0800217F
:10214000FF2000F0B1F90421E02000F0ADF9E1B288
:102150005A2000F0A9F9E9B25B2000F0A5F90421AA
:10216000C4F3012001EA951101435C2000F09CF9C1
:102170000021E02000F098F9002070BD70B5074DF7
:10218000002400BF05EB4400417815F8140000F06E
:102190008BF9641C0E2CF5D370BD0000C4590008E7
:1021A00070B5802600243546072817D2DFE800F0F6
:1021B000160406080C0F130040240FE018240DE04D
:1021C00018244026C02509E01824402601E01824E0
:1021D000A026402502E018244026A6250021FF2045
:1021E00000F062F900217C2000F05EF921467D209C
:1021F00000F05AF905217C2000F056F931467D2087
:1022000000F052F92946BDE870407D2000F04CB93D
:1022100070470000C0F3421110B500F01F0001EB41
:102220004000FEF7E1F99FED051B53EC112BFEF783
:102230006CF9FEF729FA00EE100A10BD000000004C
:1022400000A06740104810B5016886B041F0080151
:10225000016000680D4C00F008000590C02000905F
:102260000120019002900220039069462046FEF76B
:10227000A3FF206820F440402060206840F48040A4
:10228000206006B010BD000030380240000C024053
:1022900010B5322002F00CFB0F4C012280212046A9
:1022A000FFF7B1F8012240212046FFF7ACF83220B9
:1022B00002F0FEFA002240212046FFF7A4F8322067
:1022C00002F0F6FA002280212046FFF79CF8BDE8D4
:1022D0001040322002F0ECBA000C024070B5184CED
:1022E0000025206820F440402060206820600826F7
:1022F000322002F0DDFA012240212046FFF783F868
:102300006806050E80212046FFF770F808B16D1CA5
:10231000EDB2322002F0CCFA002240212046FFF735
:1023200072F8761E16F0FF06E2D1206820F44040D5
:102330002060206840F480402060284670BD000086
:10234000000C024010B5044600F022F8602000F0B6
:102350005DF8642002F0ACFA204600F057F86420E3
:1023600002F0A6FA00F034F8642002F0A1FA00F0BE
:102370000FF8612000F04AF8642002F099FAFFF7A4
:10238000ADFF0446FFF784FF00F022F8204610BDA1
:1023900010B50E4C012280212046FFF734F80122AF
:1023A00040212046FFF72FF8322002F081FA002268
:1023B00080212046FFF727F8322002F079FA2046E4
:1023C0000022BDE810404021FFF71DB8000C02407C
:1023D00010B50D4C002280212046FFF714F8322062
:1023E00002F066FA012240212046FFF70CF8322065
:1023F00002F05EFA012280212046FFF704F8BDE8D2
:102400001040322002F054BA000C024070B5254E44
:1024100005460024280601D5012200E00022802183
:102420003046FEF7F0FF6806050E322002F040FA53
:10243000012240213046FEF7E6FF322002F038FA52
:10244000002240213046FEF7DEFF641CE4B2082C77
:10245000E0D33068344620F440403060306830606B
:10246000322002F025FA012240212046FEF7CBFF60
:10247000322002F01DFA80212046FEF7B7FF08B196
:10248000012500E00025002240212046FEF7BBFF89
:10249000206820F440402060206840F480402060A4
:1024A000284670BD000C024070B50D46064600245B
:1024B000FFF76EFF6020FFF7A9FF00B10124642041
:1024C00002F0F6F93046FFF7A1FF00B101246420C5
:1024D00002F0EEF92846FFF799FF00B10124FFF75B
:1024E00077FF204670BD7047FEF7AABF30B593B0A6
:1024F00030216846FDF7D1FE14210CA8FDF7CDFE72
:102500001F480025016841F080510160006800F01B
:10251000805011901B48016841F4404101600068FF
:10252000022400F4404011900120039010200490F8
:10253000009406940820CDE90750B420CDE90904A1
:1025400004200B906846FFF785F980B9FFF712F871
:1025500068B90CA90F2081E831004FF4A0500F900A
:10256000E002109005210CA8FFF73CF808B1FEF737
:1025700015FB002211461046FFF726F913B030BDB7
:1025800040380240007000400248016841F4700188
:102590000160704788ED00E070B50446006801698D
:1025A000E26821F44051114301612169A068E269A8
:1025B00008436169114308432168CA6849F20C6302
:1025C0009A430243CA6020684169A26921F44071BC
:1025D0001143416131492068884202D03049884224
:1025E00002D1FFF7AFF801E0FFF79CF8E2690023A2
:1025F000192164253226B2F5004F626828D0A0FB6D
:102600000101930F9200FDF7EFFD0146B0FBF5F0DD
:102610006FF01802504301EB800006EB0010B0FB96
:10262000F5F000F0F002B1FBF5F002EB0012B1FBA7
:10263000F5F06FF01803584301EB800006EB001033
:10264000B0FBF5F000F00F0021681044886070BD09
:10265000A0FB010192185B41FDF7C6FD0146B0FBEE
:10266000F5F00201B1FBF5F06FF01803584301EBF0
:10267000800006EBC000B0FBF5F000F0F80002EBC4
:102680004002B1FBF5F0584301EB800006EBC000BF
:10269000B0FBF5F000F00700D6E7000000100140A5
:1026A000001401402DE9F041984617460E460446B5
:1026B000069D27E0681C25D02DB1FEF7BBFEA0EBE0
:1026C0000800A8421ED920680C3050E8001F21F4F1
:1026D000D07140E80012002AF5D12068143050E88B
:1026E000001F21F0010140E80012002AF5D120204E
:1026F00084F83D0084F83E00002084F83C0003206C
:10270000BDE8F0812068006836EA000004D00020AF
:10271000B842CFD00020F3E70120F9E7FEE7000040
:102720000FB4054B10B503A9044A029800F0FAFE55
:1027300010BC5DF814FB0000FD4D0008A80F001050
:102740004100080218BF04200A0E18BF40F0010023
:102750004FF07F4232EA010108BF40F00200012839
:1027600008BF052070470907090E002804DB00F1A7
:10277000E02080F80014704700F00F0000F1E02026
:1027800080F8141D704700009FED3C0A63E000BF15
:1027900092ED003A91ED004AD2ED012AD1ED013AD5
:1027A00004EE030A92ED022A91ED021AD2ED030A19
:1027B000D1ED031A91ED044A03EEA20AD2ED043AD8
:1027C00092ED053AD1ED052A01EE020A92ED062AB4
:1027D00092ED071A01EEA00AD1ED061AD1ED070A13
:1027E00004EE230AD2ED083A91ED084A02EE830A7C
:1027F000D2ED092A91ED093A01EE820A92ED0A2AF8
:10280000D1ED0A1A00EE810A92ED0B1AD1ED0B0AF6
:1028100004EE230A91ED0C4AD1ED0D3A03EE220AA3
:1028200092ED0C3AD2ED0D2A01EE820A92ED0E2ABB
:10283000D1ED0F1A00EE810A91ED0E1AD2ED0F0ABA
:1028400040314032103B04EE030A03EEA20A01EECF
:10285000020A01EEA00A102B9AD206E0F1EC010A5E
:102860005B1EB2EC011A00EE810A002BF6D1D0ED0E
:10287000000A30EE800A80ED000A70470000000078
:1028800010B510EE104A4FF019406849002200EBD5
:1028900044002DED028B884257D8DFED650A14F015
:1028A000004F60EE200A14BFBEEE001AB6EE001A0A
:1028B00071EE200AFDEEE00A10EE900A00EE900A9A
:1028C000F8EEE00A9FED5B1A00EEC10A9FED5A1A7E
:1028D00000EEC10ADFED590A9FED591A00EE201AE9
:1028E000DFED580A40EE010A9FED571A574B00F0F2
:1028F000030100EE201A21EE000A7B4403EB810362
:10290000D3ED000A524B7B4403EB810393ED001A95
:10291000504B41EE000A7B4403EB8101801091EDA6
:10292000000A70EE800AEABB00EE100AB8EEC01A88
:10293000DFED491A9FED490ABDEC028B01EE210A39
:10294000BCEEC00A20EE200A10BD4FF0FF40A043AD
:102950001BD04FF0CE40B0EB440F82BFB7EE000A61
:10296000BDEC028B10BD3E48B0EB440F28BF0122E6
:1029700093D2022000F09CF814F0004F15D0BDEC6B
:10298000028BBDE8104000F07BB814F5000F02BFC9
:102990009FED340ABDEC028B10BDBDEC028BBDE88F
:1029A000104000E007E000F05FB8BDEC028BBDE82E
:1029B000104000F05DB800EBD07359104FF07E521C
:1029C00002EBC15100EE101AA0EB630002EBC05005
:1029D00060EE200A00EE100A20EE208A18EE100A9F
:1029E00088B118EE100AB0F1FF4F15D018EE100A9A
:1029F000FFF7A6FE042808BF00F042F8B0EE480A30
:102A0000BDEC028B10BD022000F052F8BDEC028B31
:102A1000BDE8104000F034B8022000F049F8BDECE9
:102A2000028BBDE8104000F023B800000000501EEB
:102A30003BAAB8400070313EF4FD053712BB2A3D79
:102A400012BB2A3EFFFFFF3EFFFF7F3F56E1100013
:102A50005AE110002AE110000000004B00007E4EF9
:102A60000000A0850000000030EE000A7047000062
:102A70009FED020A20EE000A70470000000000707F
:102A80009FED020A20EE000A7047000000000010CF
:102A900002E008C8121F08C1002AFAD17047704727
:102AA000002001E001C1121F002AFBD17047000085
:102AB0000149086070470000AC0F0010F0B5059D9B
:102AC00025F0010403EB84069FED460AEF085AE067
:102AD00051F8044BD3ED002A04F0FF0C4FEA1C1E02
:102AE00002EB8E0E0CF00F0C9EED002A02EB8C0C0C
:102AF00002EE220ADCED001A93ED012AC4F3072C42
:102B00004FEA1C1E02EB8E0E01EE820A9EED001AA9
:102B1000D3ED021A0CF00F0C02EB8C0CD3ED042A4F
:102B200001EE210ADCED000A93ED031AC4F3074C11
:102B30004FEA1C1E02EB8E0E00EE810A9EED002A6B
:102B40000CF00F0C02EB8C0C240EDCED001A02EEE4
:102B5000220A93ED052A4FEA141C02EB8C0C04F0B8
:102B60000F049CED001A01EE820AD3ED061A02EB67
:102B70008404D4ED000A01EE210A93ED071A2033F4
:102B80007F1E00EE810A002FA2D115E011F8014B43
:102B900093ED001A270902EB870704F00F04D7ED25
:102BA000000A02EB840400EE810AD4ED000A93EDE2
:102BB000011A083300EE810AB342E7D3EC0709D0CB
:102BC000097893ED001A090902EB8101D1ED000AA1
:102BD00000EE810AD0ED000A30EE800A80ED000A96
:102BE000F0BD000000000000F0B59FED380A059D23
:102BF000EE0851E051F8044BD3ED002AE7B202EBA6
:102C00008707D7ED001AC4F3072702EB870701EE09
:102C1000A20A97ED002AD3ED011AC4F3074702EB8D
:102C20008707240E02EE210A97ED001AD3ED021A4F
:102C300002EB8404D3ED042AD4ED000A01EE210A4C
:102C400093ED031A51F8044BE7B202EB870700EE4D
:102C5000810A97ED002AC4F3072702EB8707D7ED17
:102C6000001A02EE220A93ED052AC4F3074702EB8D
:102C70008707240E97ED001A01EE820AD3ED061A9B
:102C800002EB8404D4ED000A01EE210A93ED071A49
:102C90002033761E00EE810A002EABD105F007042A
:102CA0000BE000BF11F8015B641E02EB8505B3EC7D
:102CB000011AD5ED000A00EE810A002CF2D1D0ED08
:102CC000000A30EE800A80ED000AF0BD000000002E
:102CD00010B54169044688472069A04200D1002010
:102CE00010BD0120704700002DE9F04F002699B07B
:102CF0000F4605463446B0464CE0A868C4EBC40312
:102D00008946426802EB83020E92806810AA00EBAB
:102D1000C40A2C480D9251F8082F406A120A62F337
:102D20001F200190D1F804B01C2105A8FDF7B5FAC9
:102D3000D9F81800006801F04FF90590D9F818008B
:102D4000806806905FEA0A0009D0C0F80080D9F8D0
:102D50000010416029B1498819B1012102E04046C3
:102D600003E00021016001B900200790D9F81800A4
:102D70001C2205A9406809900198CDE90A0B0D981D
:102D8000FDF772FA1C2210A90E98FDF76DFA761C59
:102D9000B6B2641C0DB1288800E00020A04205D91D
:102DA000686818B150F824100029A6D11EB1A8688F
:102DB0004068386001E0C7F8008019B03046BDE8CF
:102DC000F08F0000D809110870470000D3ED021AF7
:102DD00093ED000A93ED011AF5EEC01A01EB8203A0
:102DE000F1EE10FA00EB82002AD2B5EEC01AF1EE35
:102DF00010FA11D0001F1B1F8B4220D3D3ED000A05
:102E0000F4EEC00AF1EE10FA03D870EEC00A60EEDC
:102E1000810AC0ED000AEDE79FED161A0BE000BF36
:102E2000D3ED000AF4EEC00AF1EE10FA01D8F0EE8C
:102E3000410AC0ED000A001F1B1F8B42F0D27047F1
:102E4000001F1B1F8B42FAD3D3ED000AF4EEE10AF8
:102E5000F1EE10FA09D8F4EEC00AF1EE10FA06D835
:102E600070EEC00A60EE810A01E0F0EE610AC0ED8A
:102E7000000AE5E700000000D3ED000A9FED0B1A01
:102E800001EB820300EB8200001F1B1F8B420BD360
:102E900093ED000AB4EEE00AF1EE10FA01D8B0EEBC
:102EA000410A80ED000AEFE77047000000000000D3
:102EB0002DE9F0479946DDE908870C46054601EB08
:102EC000820608E04A462146284600F009F804EB4D
:102ED000880405EB8705B442F4D3BDE8F087000011
:102EE0002DE9F04107462DED028B15460E4691ED7A
:102EF000008ADFED208A01200CE000BF06EB800194
:102F000091ED000AB4EEC80AF1EE10FA01D3B0EE6A
:102F1000408A401CA842F1D300240EE006EB840056
:102F200090ED000A30EE480AFFF7AAFC07EB840098
:102F300070EE288A80ED000A641CAC42EED3F5EEF8
:102F4000C08AF1EE10FA10D0F7EE000A002080EEF1
:102F5000A80A08E007EB8001401CD1ED000A60EEF2
:102F6000800AC1ED000AA842F4D3BDEC028BBDE893
:102F7000F0810000000000002DE9FF5F82B0002119
:102F8000DDE90430020DDDF840B0034318D044F60B
:102F90001050A2F2FF3242431514119801281FD09D
:102FA000A5EB0B00401C5FEA000A4FF000064E4FF5
:102FB000DFF83891B046504615D5CAF1000413E049
:102FC000119801244AA3012801D16FEA0B0102984C
:102FD000119AC0E90031C0E9024206B0BDE8F09F95
:102FE000CBF10000DFE704460021404A491842EBDC
:102FF0000450CDE9001012E0E00707D032463B460E
:1030000040464946FDF70FFA8046894632463B4620
:1030100010461946FDF707FA06460F466410002CC5
:10302000EAD1DDE90401DDE90023BAF1000F06DA97
:10303000FDF7F9F942464B46FDF7F5F905E0FDF7D6
:1030400064FA42464B46FDF760FA04460E460022FB
:10305000284BFDF701FC03D84FF0FF30014607E095
:103060000022254B20463146FDF736F9FDF7C9FA17
:10307000102409E0002C0ADB0A220023FDF7B4F833
:10308000039B30321A55641E50EA0102F2D1641CCF
:10309000039AC4F111031444119A012A03D00122A6
:1030A00008430DD10AE0084304D000204FF0110B73
:1030B000119072E7A3EB0B056D1E0DE05B4504DD7F
:1030C0004FF0000205F1010504E003DA4FF00002C1
:1030D000A5F10105002AECD002981199C0E902314E
:1030E000C0E9004579E70000000014400000F03F0F
:1030F000300000000000F0430000E03F70B50546DE
:103100000C4648886988884202D9AAB1002070BD5F
:1031100092B100260CE000BF6168C6EBC6006A6889
:1031200001EB800102EB80001C22FDF79DF8761C6C
:103130006088B042F0D801E06068686060886880AC
:1031400020882880012070BD30B500B3F9B1F2B1FC
:103150005268E2B10F4C1368A34203D00260012908
:1031600013D014E00023121D07E000BF52F82350D3
:10317000A54204D040F823505B1C8B42F6D38B420F
:1031800005D152F82300A04201D1012030BD00201A
:1031900030BD0000DECAFAA170B50D460600144627
:1031A0001AD0CCB1104600F0BDFF00B16088A84233
:1031B00012D10023042109E0C3EBC302606801EBD4
:1031C0008202805820B146F823005B1CAB42F3D347
:1031D000AB4201D1012070BD002070BD034988427F
:1031E00001D101207047002070470000DECAFAA11B
:1031F0002DE9FE4F92468946040003D0A08D20B1F0
:10320000256B03E00020BDE8FE8F00250020E08252
:10321000A082207BC043800702D030221121DCE055
:10322000B9F1000F61D0D5B32888C0B3D9F8180020
:103230000026D0F8008056E0A868006800EB061071
:10324000019052D058B3C6EBC600029009EB800043
:103250000121009000F070FFDBF8183059688842B7
:103260001AD80098DBF80C208069D768D0F80CC019
:10327000674511D19768D0F808C067450CD15268EE
:103280004068824208D1186800F097FE0746584609
:1032900001F0F0FD874203D2182212219DE024E0C4
:1032A000DBF81800006800F097FE029920F07E42DB
:1032B00059F8210020F07E40824201D01922ECE72B
:1032C0000098406888B100988069006878B14146EC
:1032D000404500D208468046DDE900105A4600F01D
:1032E0008FF8761C2DB1288804E01722D5E721221B
:1032F000D3E70020B04206D9686820B150F826B064
:10330000BBF1000F98D1BAF1000F74D0A08D012845
:1033100006D9256B0C3503D0288808B1002658E063
:10332000182259E0A868006800EB061B3BD0BBF1EF
:10333000000F38D0C6EBC60001900AEB80000121D7
:10334000009000F0F9FED9F8183059688842E7D8A3
:103350000098D9F80C208069D768D0F80CC0674570
:10336000DED19768D0F808C06745D9D15268406867
:103370008242D5D1186800F020FE0746484601F089
:1033800079FD8742CCD3D9F81800006800F024FEFC
:1033900020F07E4201985AF8200020F07E408242C0
:1033A00003D0192218E0172216E000984068002880
:1033B000F9D000988069006868B14146404500D264
:1033C000084680464A465846009900F019F8761C8F
:1033D0003DB1288806E021221321204601F0B9F9E9
:1033E00010E70020B04206D9686820B150F8269056
:1033F000B9F1000F96D1A4F814804FF0010002E754
:1034000070B504460E461546104601F033FD0146E0
:10341000A060B06900684843E060716861607268EC
:1034200010442060A8690268920007D4D0E9022302
:10343000D21A11448160A9696068C86070BD70B516
:103440000646002521E0B068006800EB0514886995
:103450000268920005D58168A268606801F0D0FF1B
:1034600008E0D0E90223D21A63681A4482608969AD
:103470006068C860D4E9010108446060216888423E
:1034800001D3E068081A6D1C60600EB1308800E05E
:103490000020A84206D97068002803D050F82510F3
:1034A0000029D0D170BD2DE9F0410646002529E064
:1034B000B1688369096801EB051419688900D4E9CA
:1034C00001120DD5986801F09BFFD4E90101084471
:1034D00060602168884201D3E068081A606010E0EB
:1034E0000A44626021688A4201D3E2688A1A6260F3
:1034F0008169D1E90237DB1B1A448A6080696168FF
:10350000C1606D1C0EB1308800E00020A84206D9D1
:103510007068002803D050F825000028C8D1BDE805
:10352000F08100002DE9FF4F95B09A468846064687
:103530000025EEE1252877D100242746F94A01210C
:10354000039400E0044316F8013F203B01FA03F026
:103550001042F7D130782A2811D06FF02F0330783D
:10356000A0F13002092A16D8039A44F0020402EBB3
:10357000820203EB42021044761C0390EFE758F8F6
:10358000042B0392002A03DA504244F400540390BF
:1035900044F00204761C30782E2816D116F8010F5C
:1035A00044F004042A280DD06FF02F023078A0F1E7
:1035B0003003092B09D807EB870302EB4303C71835
:1035C000761CF3E758F8047B761C30786C280FD013
:1035D00006DC4C2817D068280DD06A2814D104E0E6
:1035E000742810D07A280FD10DE044F400140AE0BA
:1035F00044F4801401E044F440147278824202D111
:1036000004F58014761C761C307866280BD013DC09
:10361000582877D009DC002875D04528F6D04628F0
:10362000F4D047281AD193E118E0632835D06428F4
:1036300079D0652812D18BE1702873D008DC672817
:10364000F1D069286FD06E280DD06F2806D1ACE07C
:1036500073282CD0752874D0782853D052461799E7
:1036600090476D1C54E1C4F30250022809D003288E
:103670000DD0D8F8001004280DD00D6008F1040812
:1036800046E1D8F80010EA17C1E90052F6E7D8F889
:1036900000100D80F2E70D70F0E718F8041B8DF8AC
:1036A000001000208DF80100EB46012003E058F8DF
:1036B00004BB4FF0FF3061074FF0000102D40DE072
:1036C00009F101018946B9420FDA8145F8DB1BF89F
:1036D00009100029F4D108E009F10101894681426D
:1036E000FADB1BF809100029F6D103985346A0EB2A
:1036F000090721463846179A00F080FA284400EB63
:10370000090507E044E008E10DE01BF8010B524613
:1037100017999047B9F10109F7D253462146384627
:10372000179AF2E039E00A21C4F302524FF0000B7D
:103730000091022A06D058F8040BC117032A09D0B9
:103740000AE023E008F1070020F00702F2E8020196
:10375000904605E000B2C117042A01D140B2C1175A
:10376000002906DA0A460021404261EB02012D22BF
:1037700002E0220504D52B228DF80420012203E06B
:10378000E20701D02022F7E7914657E00A2100E046
:1037900010214FF0000B00910BE010214FF0000BB7
:1037A00044F004040827009103E008204FF0000BC8
:1037B0000090C4F30252022A05D058F8040B0021ED
:1037C000032A08D008E008F1070020F00702F2E819
:1037D0000201904603E080B2042A00D1C0B24FF04B
:1037E000000922072AD53278702A07D0DDF800C0F8
:1037F0008CF0100C5CEA0B0C05D00EE040228DF82A
:103800000420012208E050EA010306D030238DF89D
:1038100004308DF8052002229146009B83F00803B6
:1038200053EA0B030AD150EA010201D1620705D520
:1038300030228DF804204FF001097F1E3278582A7B
:1038400004D039A20C920CAA02920BE03BA2F9E739
:103850005B46009AFCF7C8FC0C9B9B5C029A521ECC
:103860000292137050EA0102F2D1029804A9081AD8
:1038700000F1200B600702D524F4803400E001271A
:103880005F4502DDA7EB0B0000E0002000EB0B0121
:10389000009003984944401A0390E00306D453462D
:1038A0002146179A039800F0A9F90544002706E07D
:1038B00001A85246C05D179990476D1C7F1C4F456B
:1038C000F6DBE0030CD553462146179A039800F027
:1038D00095F9054404E030205246179990476D1C35
:1038E0000099481E00900029F5DC08E00298029932
:1038F00052460078491C0291179990476D1CBBF104
:103900000001ABF1010BF1DC5BE100F065F905446E
:10391000761C307800287FF40DAE19B02846BDE83B
:10392000F08F00000928010030313233343536374A
:1039300038396162636465660000000030313233FB
:10394000343536373839414243444546000000009B
:10395000600700D4062708F1070020F00700F0E810
:103960000223804603F0004C5FEA0C0001D097A0D0
:1039700009E0200501D596A005E0E00701D095A05B
:1039800001E0AFF24C001390307823F0004365283B
:103990000CD006DC452809D046281DD047287FD109
:1039A0003BE0662818D067287AD136E00021112F35
:1039B00001DB112000E0781CCDE9000104A90CA86E
:1039C000FFF7DAFADDE90D010C9A4FF0000B07F171
:1039D0000109109200914EE04FF000400097CDE9B0
:1039E000011004A90CA8FFF7C7FADDE90D020C9B32
:1039F0000F994FF0000B91461093009211B9791C6A
:103A000000EB0109B7EB090003D4C0F1FF3B07F15C
:103A10000109A9EB0700019042E0012F00DA01271C
:103A20000021112F01DD112000E03846CDE9000111
:103A300004A90CA8FFF7A0FADDE90D010C9A00918A
:103A40004FF0000BB946109221070FD4009A4A4557
:103A500003DA914601E0A9F10109B9F1010F05DD91
:103A6000109AA9F10101515C3029F4D0B84202DA70
:103A700010F1040F03DA0121CDE9011010E0002854
:103A800003DC8344A9EB000102E0411C494500DD51
:103A90008946A0EB0B00401C01904FF000400290C3
:103AA000200705D40198484502DB4FF0FF30019014
:103AB00000208DF84B0002980DF14B07B0F1004F3C
:103AC00025D002200C902B200D90029800280CDAB3
:103AD000404202902D200D9007E00A210298FCF749
:103AE000EFFD3031029007F8011D0C99481E0C9033
:103AF0000029F2DC02980028EFD1791E0D98087099
:103B0000307800F0200040F0450007F8020D11A8C1
:103B1000C01BC01D02901398007800B1012000EB7B
:103B20000901019801EBE071029801440398401AE1
:103B3000401E0390E00306D453462146179A03988B
:103B400000F05CF805441398007818B152461799B4
:103B500090476D1CE00323D553462146179A0398DE
:103B600000F04CF805441BE0BBF1000F07DB0098A8
:103B7000584504DD1098179910F80B0001E01799CB
:103B800030205246904701980BF1010B401E05F181
:103B90000105019004D12E205246179990476D1CC3
:103BA000B9F10001A9F10109DEDC05E017F8010B0C
:103BB0005246179990476D1C0299481E02900029A1
:103BC000F4DC53462146179A03989EE62D00000028
:103BD0002B000000200000002DE9F04104460025E4
:103BE0001E461746880404D405E039462020B04715
:103BF0006D1C641EF9D52846BDE8F0812DE9F04121
:103C0000044600251E469046C80301D5302700E033
:103C10002027880404D505E041463846B0476D1C8E
:103C2000641EF9D52846BDE8F081000013B50448AC
:103C30000078002803D0012101A801F0D1FB1CBDB0
:103C4000A40F00102DE9F04F3F242DED088B91B00B
:103C50008146B0EE408AF0EE608A00259FED490B68
:103C600051EC180B53EC102BFCF7F6FC01D20120A1
:103C700000E0002082469FED45AB9FED469B00266D
:103C80009FED46BBD9F8047009E000BF53EC1B2B35
:103C900051EC190BFCF7C7FB41EC190B761CB74232
:103CA000F4DCBAF1000F05D051EC180B81F00041A3
:103CB00041EC180B53EC192B51EC1A0BFCF725FCBB
:103CC00053EC182BFCF708FB53EC192BFCF7ABFB60
:103CD000FCF797FC06464FF02E0BE8460A2200231D
:103CE0003046FCF781FA0A22A0FB0223B21A3032D6
:103CF00008F8042005F101050646A4F10104AF42CD
:103D000003D108F804B0641E6D1C56EA0100E5D129
:103D10003020AF4204D908F80400641E6D1CF8E797
:103D2000AF4203D108F804B0641E6D1C7F1CAF4283
:103D300003D108F80400641E6D1CBAF1000F04D012
:103D40002D2008F80400641E6D1CD9F80000202105
:103D5000A84204D908F80410641E6D1CF8E7002678
:103D6000641C06E008EB0400815DD9E9032090475C
:103D7000761CAE42F6D311B02846BDEC088BBDE8E8
:103D8000F08F0000000000000000000000000000B4
:103D90000000E03F000000000000F03F00000000D5
:103DA000000024402DE9F04790B0002617468DF81A
:103DB0003F60926804463E259046B14668465207E9
:103DC0000DD5221E71F1000209DA0023D4EB0304A1
:103DD0003A6863EB0101521E4FF02D093A608246AA
:103DE0005FEAC86021D5200940EA017004F00F02A3
:103DF00009090A2A08D35FEA087301D5412300E0C4
:103E000061231A440A3A00E03032D3B20AF805308E
:103E10006D1E0446761C52460843E1D1B9F1000FED
:103E200012D05FEAC8700BD00EE00A2200232046B1
:103E3000FCF7DAF90A22A0FB0223A21A3032E4E7E7
:103E40000AF805906D1E761C302138682023B04298
:103E50000BDD5FEA887408D45FEAC87401D051555D
:103E600000E053556D1E761CF1E7B9F1000F06D046
:103E7000401CB04203DD02F805906D1E761C002444
:103E800090466D1C07E000BF08EB0500015DD7E917
:103E900003209047641CB442F6DB387A800705D4CF
:103EA00007E0D7E9032020219047761C3868B0420C
:103EB000F7DC10B03046BDE8F08700002DE9F04196
:103EC0000D468046FCF7F4F904466868002610B1F8
:103ED000A04200DA0446287A80070AD4274605E083
:103EE000D5E9032020219047761C7F1C2868B84222
:103EF000F6DC002707E000BFD5E9032018F8011B16
:103F00009047761C7F1CA742F6DB287A800706D4F0
:103F100008E0D5E9032020219047641C761C28681E
:103F2000A042F6DC3046BDE8F081000010B50AA0E2
:103F300000F0E2FF0023072209A10DA000F0DCFF42
:103F40000FA000F0D9FF01F0A3FA01F03BFA00F056
:103F500053FC002010BD00000D0A230D0A000000D4
:103F600041492056616C69646174696F6E0000009C
:103F7000232025732025642E25640D0A00000000EF
:103F8000230D0A0079B1C0F3C6125143C91DC0F315
:103F9000415321F00701D940C0F34340042804D025
:103FA000082807D104E00020704701EB021101E06E
:103FB00001EB0221C91DC808704759B1C0F3C612F0
:103FC0005143C91D21F00701C0F34150C140C91D33
:103FD000C80870470020704770B54021C0F34342C5
:103FE000022A1BD0394A20F07E439C1A0D014E0153
:103FF00093425FD029DC364AA3EB0204934259D0A6
:1040000019DC402B57D0403BB3F580234CD0802B9C
:1040100037D0AB424FD12E49C91F4CE0C0F3C0513D
:10402000C905C0F3C61241EAC21100F07F02114374
:1040300041F480213FE0A4F54074F93C1FD00F2CDF
:1040400035D0B44237D1234935E0234BE21A9C42A4
:104050001BD00BDC214AA2181DD0802A19D0AA42FD
:1040600011D0A2F58062073A25D117E00F2A18D0A7
:10407000B2420CD01A4BDA421DD11A491BE01A4940
:1040800019E01A4917E01A4915E01A4913E01A49CC
:1040900011E01A490FE0194980390CE01449C91D93
:1040A00009E014490F3106E01049803903E00E4958
:1040B0000F3100E0114600F080420A4300F0005149
:1040C000114300F00060084370BD0000400406008A
:1040D000470404004010040000047E00000482FF36
:1040E00000F801FF4010820140080400C0000400F5
:1040F000400484004008840040108400C000840014
:1041000070B514460D46064600F00CF840B17068D4
:10411000C5EBC50110EB810002D04460012070BDE9
:10412000002070BD28B1416819B1408808B1012054
:10413000704700207047000010B502002AD0164BCF
:104140001068B3EBC01F03D0144BB3EBC01F01D1F9
:10415000012000E0002008429069406802D01F3032
:1041600020F01F005369D9B2012900D000211C0A98
:1041700007E0012907D0936953F821305843491CBF
:104180001AB1234602E00123F8E700238B42F0DC5A
:10419000002800DC002010BD00600042006000022A
:1041A00008B509A10968009148B101789DF800207F
:1041B000914204D104226946FCF781F808B100203D
:1041C00008BD012008BD0000038404842DE9F041EE
:1041D000C66B416B044600258163CEB1D9B1012085
:1041E000226CB0470CE00220226CB047A06BFEF7B7
:1041F0006FFD07460320226CA16BB0476D1CA763BF
:10420000A16B0029EFD106E0FEF762FD6D1CA063F3
:10421000A06B0028F8D12846BDE8F08103460020B5
:10422000596B002908D0CB600A69401C8A4203D030
:10423000002A01D01146F6E770472DE9F041446BA2
:10424000002594B1012600272079C00707D0216AF4
:10425000204611B18847304600E0384605442069C1
:10426000A04202D008B10446EEE72846BDE8F0813E
:104270001CB500230522CDE900230123014A00F0EB
:1042800003F91CBD140A00102DE9F0430F468FB04E
:10429000164605460021FFF7EBFF804610F0FF0FA2
:1042A0000BD1684600F032F820B1A7B100240DF11F
:1042B0000C090CE0286800F03DF80FB0BDE8F08371
:1042C00057F8242021464846FFF71AFF641CBDF822
:1042D0000E00A042F4DC76B100246F4607E000BF78
:1042E00056F824202146381DFFF70AFF641CBDF84C
:1042F0000600A042F4DC6946286800F01DF818B9F1
:10430000286800F017F880464046D6E71FB5002819
:104310000CD00749D1E90023CDE90023D1E90221DE
:10432000CDE902216A4602A900F034F804B010BDBC
:10433000885A000800F02CB92DE9F0410D460646D8
:1043400000F034F9041E0DD0294600F071FF074635
:104350002946204600F010FF00EA0704304600F02E
:10436000ABF92040BDE8F08110B90248024A026072
:1043700000F05EB8140A00100001C0A110B9024894
:10438000024A026000F0EBB9140A00100001C0A15B
:1043900000F0B5B910B570B169B162B1074C0460F5
:1043A000D1E90041C0E90141D2E90012C0E903129C
:1043B0000123184610BD002010BD0000DECAFAA17E
:1043C00010B518B1044A0168914200D0002004469B
:1043D000FCF738FB204610BD0001C0A130B44AB143
:1043E00040B139B1074C1368A34206D130BC0C323E
:1043F000FEF7D2BE30BC0020704730BC1C32FEF746
:10440000A3BE0000DECAFAA130B44AB140B139B14E
:10441000064C1368A34206D130BC121DFEF7BCBE89
:1044200030BC0020704730BCFEF78EBEDECAFAA159
:10443000F8B50E46FFF7C4FF04000AD00027009726
:10444000A08D00B1206B6946FEF74EFC050006D03A
:104450000BE01022114600F07CF90020F8BD182274
:104460001121204600F075F9009706B135800098BB
:10447000F8BD0000034810B54469FCF7E3FA204694
:1044800010BD0000D80911082DE9F04F89B006468B
:10449000DDE912104FF0000A554663F30705CDE938
:1044A000011361F30F259046544660F31745834688
:1044B000FEF717FC304F01001CD030480068012384
:1044C000C0F30220042806D02D481822026002689A
:1044D000182A13D00BE02B481422836083680BB199
:1044E000521EFBD1826812B90068401C0AD00846EF
:1044F000FEF76AFCF86909B0BDE8F08F0360026856
:10450000002AFCD10846FEF75FFCFCF79BFAE6B1F7
:104510001D49C8F80010C6F8008000F05DF9B0B180
:10452000FFF7A8FF8146C5F30721E8B2002200F09B
:1045300047F90546C9F3072109F0FF00002200F002
:104540003FF9854205D07C680BE0386AD3E73C68C8
:1045500007E00EA0006800906846FFF721FE10B942
:10456000BC68C6F800A0DDE901105A4600F028F941
:10457000C8F848002046BEE7D8091108002004E02A
:10458000084C0258003002400001C0A1038404849A
:1045900010B5FFF715FF20B1BDE81040103000F056
:1045A00015B90148806910BDD80911082DE9F04FEF
:1045B00091B00C46FFF704FF050013D0B4B13BA146
:1045C0002068FEF70BFE06004FF0000B11D02068AC
:1045D0000190D4E90301CDE90401D4E90101CDE959
:1045E000020143E0002011B0BDE8F08F112210213C
:1045F00058E001212046D4F804A0FFF79DFD804635
:1046000004F11C00D4F8209001211090FFF794FDD4
:1046100007461422274906A8FBF726FE0120B8F119
:10462000000F02D0ADF81E0002E0ADF81EB000246D
:1046300008941FB1ADF82600109802E0ADF826B03E
:1046400000200A90B9F1000F02D10FB1132206E049
:10465000BAF1000F05D1B8F1000F02D012221021DB
:104660001FE0142206A901A8FBF7FEFD86F0010257
:10467000144602A905F11C00FEF740FD68B1224670
:1046800004A905F12400FEF739FD40B10320E860DC
:104690002846FFF7C3FD2846A5E7122200E01322B3
:1046A0001621284600F055F89CE70000696E6974F1
:1046B00000000000300A110870B5FFF781FE041EEB
:1046C00008D0207B800706D410221121204600F05C
:1046D00040F8002070BD2046FFF7AFFDE06B60B1F1
:1046E000656B55B1D4E90F322946002098472869F7
:1046F000A84202D008B10546F4E7012070BD70B5AC
:1047000015460E46FFF75CFE04462A463146FEF784
:104710006FFD00281CD0A08D08B1256B00E000259E
:10472000012802D9266B0C360DE000260BE0284646
:10473000FEF785FE2046FFF749FD3046FEF7B3FE43
:10474000E08A401CE082E08AA18A8842EFD380B2EE
:1047500070BD002802D0103000F040B87047F8B5A6
:104760000E46FFF72DFE040007D000270097A08D0E
:10477000012808D9206B0C3006E010221146FFF703
:10478000E8FF0020F8BD00206946FEF7ADFA0500FD
:1047900005D1182211212046FFF7DBFF009706B153
:1047A00035800098F8BD02460068010A012004E047
:1047B0005368491E53F8213058430029F8D17047F7
:1047C000000640EA014040EA0220704700220168EA
:1047D000027002600846704701207047037813F0AA
:1047E000FF0F01D0002070470170016862F31F21A4
:1047F00001600120704700007FB500F0D1FD164D2B
:1048000000246C606420FCF7C5FC68686421B0FB80
:10481000F1F021466A4600F0D3F8DDE9010100EB32
:10482000C00202EB001001EB80010CA0039A00F023
:1048300063FB6A46601E002100F0C2F8DDE901104A
:1048400001EB4102C2EBC11100EBC100114908604C
:1048500000F0A6FD7FBD0000001000E02054696D4F
:10486000657374616D70202020203A205379735451
:1048700069636B202B20445754202864656C617950
:104880002831293D25642E25303364206D73290D90
:104890000A000000EC10001000224AF6E03300216C
:1048A00000E0491C8142FCD3521C9A42F7D3704766
:1048B0000022002100E0491C8142FCD3521C322A14
:1048C000F7D3704740F23342A0F2334190422FD0E9
:1048D00012DC40F22142A0F22141904220D006DCBD
:1048E000A0F5806013381DD006280DD10EE00229F6
:1048F00010D0102908D10FE0012909D00E290DD0C0
:10490000252911D0302911D00AA070470BA070477B
:104910000DA070470FA0704712A0704715A07047F8
:1049200017A0704719A070471BA070471DA07047C3
:104930001FA07047554E4B4E4F574E0053544D33AA
:10494000324634783700000053544D333246343603
:104950003900000053544D33324634303178422F01
:104960004300000053544D33324634313178432FE5
:104970004500000053544D333246343132000000BC
:1049800053544D33324634343600000053544D33C3
:10499000324634780000000053544D3332463431EF
:1049A0003000000053544D333246343133000000A0
:1049B00053544D33324634303178442F4500000093
:1049C0002DE9F0471500064688463DD0FCF7A4FEC9
:1049D00007460246002330464146FBF705FC4FF4EC
:1049E0007A72A6FB02C3044608FB0230002106FBD4
:1049F00001013A4600236046FBF7F6FB144A814664
:104A0000A6FB02C308FB0230002106FB01013A4667
:104A100000236046FBF7E8FB02464FF47A70A4FBE4
:104A20000010B9EB01014FF47A70A1FB0003084BB1
:104A3000A4FB0336C018121AC5E90212C5E90074B6
:104A40004FF00000BDE8F0874FF0FF30FAE70000BC
:104A500040420F002DE9F04F2DED028B87B08069A9
:104A6000018809B1426800E00022526832B109B100
:104A7000426800E000225268156800E00025012924
:104A800002D942680C3200E00022526842B101298A
:104A900002D942680C3200E000225268146800E03B
:104AA0000024022902D94268183200E0002252682C
:104AB0003AB1022902D94268183200E00022526855
:104AC0001268022993460BD9426812F1180F07D0D9
:104AD00032F8183F012B03D9526812B1526800E036
:104AE00000220492EA68E3684FF0000AD2F80480DA
:104AF000D3F80490D3E902235A430092DBF818302C
:104B00001A68C2F3C616C2F34157FE40069603293F
:104B100002D94668243600E00026766856B103299B
:104B200002D94068243000E000204068006808B1E5
:104B3000866900E00026C2F34340042801D008281B
:104B40000ED1DF685EB1D6E90001FFF71BFAD6F897
:104B50000CA002465146384600F052FC00E0BA462E
:104B6000DBF8140000999FED358A40680390A06936
:104B70008468A86904EB89078068029009FB01F04A
:104B800004EB8000059051E0DBF81800866804987B
:104B900010B18069856800E00025BAF1000F35D0BA
:104BA0000698042816D02EE015B1B5EC010A01E0F4
:104BB000B0EE480A8DED010ACDF80080524631462C
:104BC00001A8029BFDF77AFF03989DED010A0644B8
:104BD000A4EC010ABC42E7D322E015B1B5EC010A0E
:104BE00001E0B0EE480A8DED010ACDF80080524692
:104BF000314601A8029BFDF7F7FF03989DED010ADE
:104C00000644A4EC010ABC42E7D309E02B46324635
:104C100020460299CDE9008900F012F804EB8904DE
:104C2000029907EB890701EB8800029005988442FE
:104C3000AAD307B0BDEC028BBDE8F08F00000000E6
:104C40002DE9F04F06462DED028B81B09A46DDE945
:104C50000C98344606EB88078B4615469FED168A5E
:104C60000EE000BF8DED008A4B465A462946684645
:104C7000FDF78AFD9DED000A05EB8905A4EC010A0C
:104C8000BC42EFD3BAF1000F11D000210DE000BFFC
:104C900006EB81000AEB810290ED000AD2ED000ADA
:104CA000491C30EE200A80ED000A4145F0D301B0E6
:104CB000BDEC028BBDE8F08F0000000070B505462A
:104CC0008069018809B1426800E00022526832B16F
:104CD00009B1426800E000225268146800E0002434
:104CE000012902D942680C3200E00022526842B128
:104CF000012902D940680C3000E0002040680668B5
:104D000000E00026E86988B14068012804F1080045
:104D10002CD0FFF748FD0246E8698368A0698168E6
:104D2000B0698068BDE87040FEF750B8B069866829
:104D3000A069856804F10800FFF735FD05EB8001E7
:104D400006EB8000DFED100A0BE000BF91ED000ADA
:104D5000B5EEC00AF1EE10FA01D8B0EE600A80EDAF
:104D6000000A001F091FA942F0D270BDFFF71BFD0A
:104D70000246E8698368A0698168B0698068BDE817
:104D80007040FEF779B80000000000002DE9FC41FA
:104D90008069018809B1426800E00022526832B19E
:104DA00009B1426800E000225268146800E0002463
:104DB000012902D942680C3200E00022526842B157
:104DC000012902D940680C3000E0002040680568E5
:104DD00000E00025E0684668E868476804F10800DC
:104DE000FFF7E1FC0246CDE90067A0693346816820
:104DF000A8698068FEF75CF8BDE8FC8113B504483B
:104E0000007818B10121684600F0EAFA00981CBD4C
:104E1000A40F00100C4808B500680090009900F03D
:104E20000F0040F08070C90501D540F480700099F2
:104E3000890501D540F400700099490501D540F479
:104E4000806040F4803008BD003C024010B5040092
:104E50000ED0FCF761FC2060FCF75EFC6060FFF7A1
:104E6000D9FFA060FCF7D4FAE060FCF7DDFA20611E
:104E700010BD00000146C0684A698969C068D268EF
:104E800009685043044A1140A1F58022C03A01D17B
:104E9000C01DC00870470000FFFF7F01134810B518
:104EA0004178012201B38378114973B90B681C68FA
:104EB00024F001041C600F4B1C68E407FCD10B6854
:104EC0005B68C3F52053836082708278022A0AD11E
:104ED0000B684FF420525A6009680A6842F00102D8
:104EE0000A600021817010BD027010BD000000102A
:104EF000F00F0010286402400FB4002110B503AB7E
:104F00000348029A00F09CFB10BC5DF814FB000003
:104F10002D3C000808B5FCF79BFAFDF7E7FA50486E
:104F20000027016841F480510160006800F480505E
:104F30000090FCF767FFFCF74FFFFCF717FFFCF74B
:104F400027FFFDF705F847A0FDF7EAFBFBF7DAFCC2
:104F50004AA0FDF7E5FB4FF48046504C09E0C8201D
:104F6000FFF79AFC31462046FCF745FA4CA0FDF7C6
:104F7000D7FBFDF76BF80028F1D151A0FDF7D0FB6E
:104F8000FDF7FCF8564CA079FCF7EBFF6079FDF7D4
:104F900025F82079FDF702F8E078FDF701F9514D89
:104FA000E07905EB800135F820004988FDF7BCF871
:104FB0004FF420534C4A4D494D48FCF7C7F8E0796F
:104FC00005EB800135F820004988FDF7ADF8FBF7C7
:104FD0007BFDDFF82091B84647A0FDF7A1FBA07844
:104FE000012807D140486061A16848A0FDF798FBFF
:104FF0000220A0704AA0FDF793FB4D46C4F8108034
:10500000D4E9041000EB4100008840BAFDF702F932
:10501000206905EB8001401C81ED000A2061B0424F
:10502000EED345A0FDF77CFB2D4932482031FBF73C
:10503000B3FC46A0FDF774FB294F002517F12007AC
:1050400057F82500FBF7F5FA41EC100B294653EC15
:10505000102B42A0FDF764FB6D1C022DF0D3BBE7C3
:1050600030380240496E697469616C697A65204222
:105070006567696E202E2E2E200D0A004F5632369F
:10508000343020496E697469616C697A65204265C3
:1050900067696E2E2E2E200D0A00000000180240B7
:1050A0004F563236343020496E697469616C697AC2
:1050B000652052657472792E2E2E200D0A00000094
:1050C0004F563236343020496E697469616C7A65A6
:1050D000205375636365737320212121200D0A001D
:1050E00000000010005800080000002028000550B3
:1050F000F00F001000A000205768696C6520426521
:1051000067696E2E2E2E200D0A0000004461746126
:10511000204C656E6774683A202564200D0A0000F3
:105120004372656174652054686520496E707574BA
:105130002E2E2E0D0A00000052756E205468652038
:105140004D6F64656C2E2E2E0D0A00004F75747025
:1051500075742E2E2E200D0A000000004F7574501D
:1051600075742050726F626162696C697479202570
:10517000643A2566200D0A0010B504460A4601214E
:105180002948FFF72BF9E0B327482749274AF83188
:1051900000688860C86000F580319160D16002F1DC
:1051A000100120328860C86000F500719160D16004
:1051B00002F1100120328860C86000F580719160B2
:1051C000D16002F1100120328860C86000F18001D6
:1051D0009160D16002F1100120328860C86000F156
:1051E00040019160D16002F1100120328860C860F6
:1051F00000F120019160D16002F110018860C86067
:1052000000E00AE0203200F110019160D160A2F5C7
:10521000E0718860C860012010BD13223021204653
:10522000FFF797FA002010BD3C0800104409001059
:1052300010B504460A4601215248FFF7E5F8002858
:105240007ED050491431086840F0804008604D48D5
:10525000006800F14002C1E902201031494A0968A2
:10526000243241F08041116000F58011403191609D
:10527000D16002F110011032096841F080411160E3
:10528000414901449160D16002F110011032096876
:1052900041F0804111603D4901449160D16002F1CB
:1052A00010011032096841F0804111603849014411
:1052B0009160D16002F110011032096841F0804123
:1052C0001160344901449160D16002F11001103243
:1052D000096841F0804111602E498031014491609C
:1052E000D16002F110010A6842F080420A602A4A45
:1052F00002448A60CA6010310A6842F080420A6043
:10530000254A403202448A60CA6010310A6842F07D
:1053100080420A60214A02448A60CA6010310A68E9
:1053200042F080420A601D4A203202448A60CA600C
:1053300010310A6842F080420A60184AA03200E048
:1053400018E002448A60CA6010310A6842F0804264
:105350000A60124AB03202448A60CA6010310A6898
:1053600042F080420A600D4AD03210448860C86022
:10537000012010BD122230212046FFF7EAF900205B
:1053800010BD0000400800104002100040821000D4
:105390004083100040A31000C0AB100000AE10000E
:1053A0000648016841F080710160054800214160B4
:1053B000016841F00101016070470000FCED00E070
:1053C000001000E0054808B5016841F48051016013
:1053D000006800F48050009008BD000030380240A2
:1053E0008AB210B501464FF0FF330448FCF764FC65
:1053F00008B1002010BD012010BD000050100010A9
:10540000F0B588420ED0002A0CD08318814210D902
:1054100099420ED2114403E013F8012D01F8012D39
:105420008342F9D8F0BD00BF10F8013B01F8013B01
:10543000521E8B0701D0002AF6D1170911E000BFD8
:1054400050F8046B7F1E50F8045B50F8084B50F87E
:10545000043C41F8046B41F8045B41F8084B41F807
:10546000043C002FECD1C2F3810304E050F8044B5C
:1054700041F8044B5B1E002BF8D102F0030204E05C
:1054800010F8013B01F8013B521E002AF8D1F0BD93
:1054900010B588B0244925A0FFF72EFD02A8FFF71C
:1054A000D5FC2AA0FFF728FD059880B2FFF70AFA7D
:1054B000DDE9051302462DA0FFF71EFD38A33AA231
:1054C00004213BA0FFF718FDFBF7AAFF014640A00F
:1054D000FFF712FD454C029890FBF4F144A0FFF752
:1054E0000BFD039890FBF4F148A0FFF705FD4E4833
:1054F0000168C1F3802008B14CA000E04DA0C1F3C9
:1055000040220AB149A300E04AA3C1F300220AB134
:1055100046A200E047A201F00F04CDE9000447488D
:10552000FFF7EAFC08B010BD60394D00436F6D70A5
:10553000696C65642077697468204D444B2D415235
:105540004D204B65696C2025640D0A0053544D3382
:10555000322064657669636520636F6E666967757E
:10556000726174696F6E2E2E2E0D0A0020446576CE
:10557000696365202020202020203A204465764958
:10558000443A307825303478202825732920526514
:105590007649443A3078253034780D0A000000000E
:1055A000757365640000000046505520000000003F
:1055B00020436F726520417263682E2020203A20BC
:1055C0004D2564202D2025732025730D0A00000031
:1055D0002048414C2076657273696F6E20203A2016
:1055E0003078253038780D0A0000000040420F0066
:1055F00020535953434C4B20636C6F636B203A200C
:105600002575204D487A0D0A000000002048434CC3
:105610004B20636C6F636B2020203A202575204D52
:10562000487A0D0A00000000003C02405472756583
:105630000000000046616C7365000000740A1108E8
:105640002DE9FF4F002585B09B4614460646A84627
:10565000A946C3E025296FD10027BA461421684620
:10566000FAF71BFE0698039604902046641C017806
:10567000B9B3302908D02D2917D02E291AD0A1F17D
:105680003100082804D91FE0009808B9019840B1FA
:1056900097B1019800EB800001EB40003038019099
:1056A000E3E7029840F0010002E0029840F00200B7
:1056B0000290DAE70127D8E7009800EB800001EBC1
:1056C000400030380090D0E76C290BD0662973D0A9
:1056D00010DC582947D008DC25292ED0462915D1C1
:1056E0006AE018E04FF0010ABFE7632929D0642976
:1056F0000CD144E0732927D004DC69293FD07029FC
:1057000004D12AE075293ED0782913D04FF0010842
:10571000B8F1000F62D00BF1040B3C210698B047A2
:1057200021210698B0473E210698B0474FF0000867
:10573000ED1C53E002981AE04DE00698B0476D1C4E
:10574000E6E71BF8041BF8E75BF8040B00B929A097
:105750006946FEF7B3FB0544DAE7029840F0010022
:10576000029008200090029840F00800029040F05B
:10577000100002905BF8040B49466A460AE0029862
:1057800040F004000290752907D05BF8043BD9175C
:105790006A461846FEF706FBDDE7BAF1000F07D0B0
:1057A0000BF1070020F00700F0E802318346EFE735
:1057B0005BF8043B4946EBE70BF1070020F00700DC
:1057C000B0EC020B8346019808B9062001906846A8
:1057D000FEF738FABFE70698B0476D1C2046641CF8
:1057E000017811B10A29F6D034E709B02846BDE89E
:1057F000F08F0000286E756C6C29000000A001205D
:10580000A0007800B00090004001F0009001F0008E
:10581000600120018002E00120035802000400031F
:10582000000520030005C003A00584030005000453
:105830004006B00400061016000610160000000016
:105840000000000001020304060708090000000030
:1058500001020304FF002CFF2EDFFF013C32110088
:10586000090204D813E514482C0C33783A333BFB77
:105870003E0043111610399235DA221A37C323003D
:1058800034C0361A068807C00D870E414C00480008
:105890005B0042034A8121992440253826825C001E
:1058A000630046220C3C617062807C0520802830B9
:1058B0006C006D806E007002719473C13D345A5754
:1058C00012401711184319001A4B320937C04FCA3A
:1058D00050A85A236D003D38FF00E57FF9C04124F0
:1058E000E01476FF33A0422043184C0087D5883F50
:1058F000D703D910D302C808C9807C007D007C037F
:105900007D487D487C087D207D107D0E9000910EA5
:10591000911A9131915A91699175917E9188918FE7
:10592000919691A391AF91C491D791E89120920063
:10593000930693E3930593059300930493009300D8
:105940009300930093009300930096009708971993
:105950009702970C97249730972897269702979845
:10596000978097009700C3EDA400A800C511C65109
:10597000BF80C710B666B8A5B764B97CB3AFB4979B
:10598000B5FFB0C5B194B20FC45CC064C14B8C000C
:10599000863D500051C852965300540055005AC8D5
:1059A0005B965C00D301C3ED7F00DA09E51FE16778
:1059B000E000DD7F0500FF01E014E177E51FD7037C
:1059C000DA10E000FF00DA09D703DF0233A03C0061
:1059D000E167FF01E000E100E500D700DA00E00048
:1059E000FF00DA10D703DF0033803C40E17700008E
:1059F000FF01242025182660FF012434251C2600E1
:105A0000FF01243E25382681FF01244825402681B8
:105A1000FF012458255026920400000010040010B5
:105A2000040000005404001004000000940400105E
:105A300004000000D8040010040000001805001045
:105A4000040000005C050010040000009C0500102C
:105A500004000000E0050010040000002006001013
:105A6000040000006406001004000000A4060010FA
:105A700004000000E80600100400000028070010E1
:105A8000040000006C070010000001006C0F001003
:105A900000000100880F001001000000000201005A
:105AA00001000000010000004004040000000000AC
:105AB00000000000000000000002010001040000DE
:105AC0000000000001000000D8AE1000010000003E
:105AD000010000004004044000000000000000003D
